S01D0000456C6563747269635F77617465725F6865617465722E7372656382
S11300000C942A000C94F6010C941A020C944700E8
S11300100C9447000C9447000C9447000C94470040
S11300200C9447000C9447000C9447000C94470030
S11300300C9447000C9447000C9447000C94470020
S11300400C9447000C9447000C9447000C94470010
S11300500C94470011241FBECFE5D8E0DEBFCDBF0E
S113006010E0A0E6B0E0E2EBF8E002C005900D92EB
S1130070A436B107D9F720E0A4E6B0E001C01D9290
S1130080A636B207E1F70E9482020C9457040C943E
S1130090000086B1816086B986B1826086B986B176
S11300A0806886B9089517B886B1806186B986B12B
S11300B0806486B9349BFECF84B195B10895CF9303
S11300C0DF93D82F8BB380648BBBCDECDC9FC12D29
S11300D01124C695C695C6958C2F0E94870283EC81
S11300E099E00197F1F700C000008BB38F7B8BBBC5
S11300F08BB380688BBBCC0F8C2F880F880FC80FF5
S11301008D2F8C1B0E94870283EC99E00197F1F7F5
S113011000C000008BB38F778BBBDF91CF91089524
S1130120CF92DF92EF92FF92CF93DF9360C082B3BE
S1130130886082BB82B3846082BB8BB780688BBFCC
S11301408BB780648BBF78940E945300BC01660F08
S1130150771F660F771F680F791F072E000C880B17
S1130160990B0E945E0320E030EC4FE754E40E94B8
S1130170BB0220E030E048EC52E40E94EA036B0149
S11301807C0180E091E00E94B501C82FD0E0D093BB
S11301906500C0936400C701B6010E942D03862F39
S11301A090E0DD279E01255031092817390764F0B6
S11301B082B3806882BB82B38F7B82BB862F0E940E
S11301C05F000E94B30213C025968C179D0764F04C
S11301D082B38F7782BB82B3806482BB862F0E94F6
S11301E05F000E94AE0203C0862F0E945F009B99AD
S11301F09ECF9B9913C082B382BB82B382BB8BB761
S11302008BBF8BB78BBF8FB78F778FBF82B38F7B3B
S113021082BB82B38F7782BB0E94B802DF91CF91F9
S1130220FF90EF90DF90CF900895609164007091FB
S11302306500CB018397849780F46B5F7F4F709345
S113024065006093640080E091E00E94970183EC74
S113025099E00197F1F700C00000089560916400EF
S113026070916500CB018897849780F4655071097B
S1130270709365006093640080E091E00E949701B0
S113028083EC99E00197F1F700C0000008950F9303
S11302901F93CF93DF9380EF88BB00E010E03CC056
S11302A0829907C0829BFECF0E9415010E944701DC
S11302B00DC0839907C0839BFECF0E942E010E942C
S11302C0470104C0809164000E945F00219602C02F
S11302D0C0E0D0E0C832D1051CF302301105D4F4DB
S11302E013C0829907C0829BFECF0E9415010E9411
S11302F0470108C0839906C0839BFECF0E942E014C
S11303000E944701219602C0C0E0D0E0C43F8EE7BE
S1130310D8073CF30F5F1F4F03301105CCF2DF9178
S1130320CF911F910F9108950E94D80108951F93B2
S1130330CF93DF93EC01162F0E94DF01CE018827B3
S11303409770880F892F881F990B9195806A0E9456
S1130350E8018C2F0E94E801812F0E94E8010E948D
S1130360E501DF91CF911F9108950F931F93CF93D0
S1130370DF938C010E94DF01E801CC27D770CC0FFA
S1130380CD2FCC1FDD0BD1958C2F806A0E94E80104
S1130390802F0E94E8010E94DF018C2F816A0E9455
S11303A0E8010E94EF01DF91CF911F910F91089511
S11303B082E080B911B882B984E086BF089584EAE6
S11303C086BF06B607FEFDCF089584E986BF08956B
S11303D083B984E886BF06B607FEFDCF089584E896
S11303E086BF06B607FEFDCF83B108951F920F9214
S11303F00FB60F9211242F933F934F935F936F93F4
S11304007F938F939F93AF93BF93EF93FF930E9438
S11304104701FF91EF91BF91AF919F918F917F9190
S11304206F915F914F913F912F910F900FBE0F905D
S11304301F9018951F920F920FB60F9211242F93AD
S11304403F934F935F936F937F938F939F93AF9358
S1130450BF93EF93FF930E944701FF91EF91BF91E8
S1130460AF919F918F917F916F915F914F913F9148
S11304702F910F900FBE0F901F9018950E9494011A
S11304800E9449000E9490020E949A0284B3877FCE
S113049084BB81B3806881BB81B3806481BB81B339
S11304A0806281BB8BB380648BBB8BB380688BBB56
S11304B088E00E9487022FED83E994E02150804078
S11304C09040E1F700C000008BB38F7B8BBB8BB3F4
S11304D08F778BBB2FE986E891E0215080409040D4
S11304E0E1F700C0000080E091E00E94B50190E0D7
S11304F08156904031F460E670E080E091E00E9423
S1130500970108950E943E020E949000FDCF20E1D1
S1130510829FC001112498B39F70892B88BB0895D2
S113052087B3806F87BB8AB380648ABB8AB38068D1
S11305308ABB08958FB580688FBD8FB582608FBDEB
S11305408EB588608EBD8EB580618EBD8EB584609B
S11305508EBD80E797E197BD86BD089580E797E15A
S11305609BBD8ABD089588EB9BE09BBD8ABD089521
S11305701BBC1ABC08950E94CF020C94B0030E94C5
S1130580A90358F00E94A20340F029F45F3F29F028
S11305900C94990351110C94E4030C949F030E944E
S11305A0C10368F39923B1F3552391F3951B550BBC
S11305B0BB27AA2762177307840738F09F5F5F4F32
S11305C0220F331F441FAA1FA9F335D00E2E3AF071
S11305D0E0E832D091505040E695001CCAF72BD089
S11305E0FE2F29D0660F771F881FBB1F26173707DA
S11305F04807AB07B0E809F0BB0B802DBF01FF270C
S113060093585F4F3AF09E3F510578F00C9499034C
S11306100C94E4035F3FE4F3983ED4F38695779516
S11306206795B795F7959F5FC9F7880F911D9695C4
S1130630879597F90895E1E0660F771F881FBB1F20
S1130640621773078407BA0720F0621B730B840BCD
S1130650BA0BEE1F88F7E09508950E94C90388F04D
S11306609F5798F0B92F9927B751B0F0E1F0660F72
S1130670771F881F991F1AF0BA95C9F714C0B130B3
S113068091F00E94E303B1E008950C94E303672F13
S1130690782F8827B85F39F0B93FCCF386957795E2
S11306A06795B395D9F73EF49095809570956195CB
S11306B07F4F8F4F9F4F0895E89409C097FB3EF4F6
S11306C090958095709561957F4F8F4F9F4F99239B
S11306D0A9F0F92F96E9BB279395F6958795779519
S11306E06795B795F111F8CFFAF4BB0F11F460FFD9
S11306F01BC06F5F7F4F8F4F9F4F16C0882311F031
S113070096E911C0772321F09EE8872F762F05C044
S1130710662371F096E8862F70E060E02AF09A95DF
S1130720660F771F881FDAF7880F9695879597F9D4
S1130730089597F99F6780E870E060E008959FEF5F
S113074080EC089500240A94161617061806090664
S1130750089500240A941216130614060506089533
S1130760092E0394000C11F4882352F0BB0F40F4BB
S1130770BF2B11F460FF04C06F5F7F4F8F4F9F4FFB
S1130780089557FD9058440F551F59F05F3F71F07D
S11307904795880F97FB991F61F09F3F79F08795E4
S11307A00895121613061406551FF2CF4695F1DF6D
S11307B008C0161617061806991FF1CF86957105FD
S11307C0610508940895E894BB2766277727CB0131
S11307D097F908950E94FD030C94B0030E94A203AC
S11307E038F00E94A90320F0952311F00C9499038A
S11307F00C949F0311240C94E4030E94C10370F32E
S1130800959FC1F3950F50E0551F629FF001729FB1
S1130810BB27F00DB11D639FAA27F00DB11DAA1FC0
S1130820649F6627B00DA11D661F829F2227B00D0D
S1130830A11D621F739FB00DA11D621F839FA00D98
S1130840611D221F749F3327A00D611D231F849FE8
S1130850600D211D822F762F6A2F11249F5750403F
S11308609AF0F1F088234AF0EE0FFF1FBB1F661FBA
S1130870771F881F91505040A9F79E3F510580F083
S11308800C9499030C94E4035F3FE4F3983ED4F38F
S1130890869577956795B795F795E7959F5FC1F727
S11308A0FE2B880F911D9695879597F90895F894D6
S10508B0FFCF74
S10708B236300000D8
S9030000FC
